{"abi":[{"type":"constructor","inputs":[{"name":"_minStake","type":"uint256","internalType":"uint256"},{"name":"_targetLatencyMs","type":"uint256","internalType":"uint256"}],"stateMutability":"nonpayable"},{"type":"function","name":"coordinator","inputs":[],"outputs":[{"name":"","type":"address","internalType":"address"}],"stateMutability":"view"},{"type":"function","name":"deregister","inputs":[],"outputs":[],"stateMutability":"nonpayable"},{"type":"function","name":"getProver","inputs":[{"name":"prover","type":"address","internalType":"address"}],"outputs":[{"name":"","type":"tuple","internalType":"struct IProverRegistry.ProverInfo","components":[{"name":"proverAddress","type":"address","internalType":"address"},{"name":"stake","type":"uint256","internalType":"uint256"},{"name":"reputation","type":"uint256","internalType":"uint256"},{"name":"totalProofs","type":"uint256","internalType":"uint256"},{"name":"failedProofs","type":"uint256","internalType":"uint256"},{"name":"totalLatency","type":"uint256","internalType":"uint256"},{"name":"active","type":"bool","internalType":"bool"},{"name":"registeredAt","type":"uint256","internalType":"uint256"}]}],"stateMutability":"view"},{"type":"function","name":"getProverCount","inputs":[],"outputs":[{"name":"","type":"uint256","internalType":"uint256"}],"stateMutability":"view"},{"type":"function","name":"isActive","inputs":[{"name":"prover","type":"address","internalType":"address"}],"outputs":[{"name":"","type":"bool","internalType":"bool"}],"stateMutability":"view"},{"type":"function","name":"minStake","inputs":[],"outputs":[{"name":"","type":"uint256","internalType":"uint256"}],"stateMutability":"view"},{"type":"function","name":"owner","inputs":[],"outputs":[{"name":"","type":"address","internalType":"address"}],"stateMutability":"view"},{"type":"function","name":"register","inputs":[],"outputs":[],"stateMutability":"payable"},{"type":"function","name":"setCoordinator","inputs":[{"name":"_coordinator","type":"address","internalType":"address"}],"outputs":[],"stateMutability":"nonpayable"},{"type":"function","name":"slash","inputs":[{"name":"prover","type":"address","internalType":"address"},{"name":"amount","type":"uint256","internalType":"uint256"},{"name":"reason","type":"string","internalType":"string"}],"outputs":[],"stateMutability":"nonpayable"},{"type":"function","name":"targetLatencyMs","inputs":[],"outputs":[{"name":"","type":"uint256","internalType":"uint256"}],"stateMutability":"view"},{"type":"function","name":"updateReputation","inputs":[{"name":"prover","type":"address","internalType":"address"},{"name":"latencyMs","type":"uint256","internalType":"uint256"},{"name":"success","type":"bool","internalType":"bool"}],"outputs":[],"stateMutability":"nonpayable"},{"type":"event","name":"ProverDeregistered","inputs":[{"name":"prover","type":"address","indexed":true,"internalType":"address"}],"anonymous":false},{"type":"event","name":"ProverRegistered","inputs":[{"name":"prover","type":"address","indexed":true,"internalType":"address"},{"name":"stake","type":"uint256","indexed":false,"internalType":"uint256"}],"anonymous":false},{"type":"event","name":"ProverSlashed","inputs":[{"name":"prover","type":"address","indexed":true,"internalType":"address"},{"name":"amount","type":"uint256","indexed":false,"internalType":"uint256"},{"name":"reason","type":"string","indexed":false,"internalType":"string"}],"anonymous":false},{"type":"event","name":"ReputationUpdated","inputs":[{"name":"prover","type":"address","indexed":true,"internalType":"address"},{"name":"newScore","type":"uint256","indexed":false,"internalType":"uint256"}],"anonymous":false},{"type":"error","name":"InsufficientStake","inputs":[]},{"type":"error","name":"ProverAlreadyRegistered","inputs":[]},{"type":"error","name":"ProverNotFound","inputs":[]},{"type":"error","name":"ProverSuspended","inputs":[]},{"type":"error","name":"TransferFailed","inputs":[]},{"type":"error","name":"Unauthorized","inputs":[]}],"bytecode":{"object":"0x608060405234801561000f575f80fd5b50604051610e31380380610e3183398101604081905261002e9161004e565b600180546001600160a01b03191633179055600291909155600355610070565b5f806040838503121561005f575f80fd5b505080516020909101519092909150565b610db48061007d5f395ff3fe6080604052600436106100c3575f3560e01c80639f8a13d711610071578063ec604e461161004c578063ec604e4614610233578063f329a6bd14610252578063faab193c14610266575f80fd5b80639f8a13d7146101b3578063aff5edb11461020a578063baa0c6371461021e575f80fd5b8063678b3ee2116100a1578063678b3ee2146101495780638da5cb5b146101685780638ea9811714610194575f80fd5b80630a009097146100c75780631aa3a0081461011c578063375b3c0a14610126575b5f80fd5b3480156100d2575f80fd5b505f546100f29073ffffffffffffffffffffffffffffffffffffffff1681565b60405173ffffffffffffffffffffffffffffffffffffffff90911681526020015b60405180910390f35b6101246102fd565b005b348015610131575f80fd5b5061013b60025481565b604051908152602001610113565b348015610154575f80fd5b50610124610163366004610bc0565b610520565b348015610173575f80fd5b506001546100f29073ffffffffffffffffffffffffffffffffffffffff1681565b34801561019f575f80fd5b506101246101ae366004610c40565b610688565b3480156101be575f80fd5b506101fa6101cd366004610c40565b73ffffffffffffffffffffffffffffffffffffffff165f9081526004602052604090206006015460ff1690565b6040519015158152602001610113565b348015610215575f80fd5b5061012461071f565b348015610229575f80fd5b5061013b60035481565b34801561023e575f80fd5b5061012461024d366004610c60565b61084f565b34801561025d575f80fd5b5060055461013b565b348015610271575f80fd5b50610285610280366004610c40565b610a62565b60405161011391905f6101008201905073ffffffffffffffffffffffffffffffffffffffff83511682526020830151602083015260408301516040830152606083015160608301526080830151608083015260a083015160a083015260c0830151151560c083015260e083015160e083015292915050565b335f9081526004602052604090206006015460ff1615610349576040517f5edab1f100000000000000000000000000000000000000000000000000000000815260040160405180910390fd5b600254341015610385576040517ff1bc94d200000000000000000000000000000000000000000000000000000000815260040160405180910390fd5b335f8181526004602081815260408084206007810180548351610100810185528881523481870190815261138895820195865260608201898152608083018a815260a084018b8152600160c086018181524260e088019081529e909d52998b9052935187547fffffffffffffffffffffffff00000000000000000000000000000000000000001673ffffffffffffffffffffffffffffffffffffffff9091161787559151978601979097559451600285015594516003840155925194820194909455915160058301559251600690910180547fffffffffffffffffffffffffffffffffffffffffffffffffffffffffffffff001691151591909117905591519091551580156104e857600580546001810182555f919091527f036b6384b5eca791c62761152d0c79bb0604c104a5fb6f4eb0703f3154bb3db00180547fffffffffffffffffffffffff000000000000000000000000000000000000000016331790555b60405134815233907f1b7cffd0daaca537ec54002d5b1c372929f3e280365cc073d009758777cfc0c89060200160405180910390a250565b5f5473ffffffffffffffffffffffffffffffffffffffff163314610570576040517f82b4290000000000000000000000000000000000000000000000000000000000815260040160405180910390fd5b73ffffffffffffffffffffffffffffffffffffffff84165f90815260046020526040812060078101549091036105d2576040517f0e1606de00000000000000000000000000000000000000000000000000000000815260040160405180910390fd5b5f816001015485116105e457846105ea565b81600101545b60018301805482900390819055600254919250101561062e576006820180547fffffffffffffffffffffffffffffffffffffffffffffffffffffffffffffff001690555b8573ffffffffffffffffffffffffffffffffffffffff167f5bfeca5563038dc34e7682a1f7b1dd2c58acce22cb88f58392cafc5d7aba39bf82868660405161067893929190610ca1565b60405180910390a2505050505050565b60015473ffffffffffffffffffffffffffffffffffffffff1633146106d9576040517f82b4290000000000000000000000000000000000000000000000000000000000815260040160405180910390fd5b5f80547fffffffffffffffffffffffff00000000000000000000000000000000000000001673ffffffffffffffffffffffffffffffffffffffff92909216919091179055565b335f908152600460205260409020600681015460ff1661076b576040517f0e1606de00000000000000000000000000000000000000000000000000000000815260040160405180910390fd5b6001810180545f918290556006830180547fffffffffffffffffffffffffffffffffffffffffffffffffffffffffffffff00169055604051909133917fba8692c6ccbc20602c00b106b981eb4c6e6b0957d070a30814d626956dba28c79190a26040515f90339083908381818185875af1925050503d805f811461080a576040519150601f19603f3d011682016040523d82523d5f602084013e61080f565b606091505b505090508061084a576040517f90b8ec1800000000000000000000000000000000000000000000000000000000815260040160405180910390fd5b505050565b5f5473ffffffffffffffffffffffffffffffffffffffff16331461089f576040517f82b4290000000000000000000000000000000000000000000000000000000000815260040160405180910390fd5b73ffffffffffffffffffffffffffffffffffffffff83165f908152600460205260409020600681015460ff16610901576040517f0e1606de00000000000000000000000000000000000000000000000000000000815260040160405180910390fd5b6001816003015f8282546109159190610d21565b9250508190555082816005015f82825461092f9190610d21565b9091555082905061099a576001816004015f82825461094e9190610d21565b909155505060028101546101f41061096b575f6002820155610a08565b6002810180547ffffffffffffffffffffffffffffffffffffffffffffffffffffffffffffffe0c019055610a08565b5f6109a484610b43565b600383015460028401549192505f917fffffffffffffffffffffffffffffffffffffffffffffffffffffffffffffffff8201919082028401816109e9576109e9610d3a565b0491505061271081116109fc5780610a00565b6127105b600284015550505b8373ffffffffffffffffffffffffffffffffffffffff167ffc577563f1b9a0461e24abef1e1fcc0d33d3d881f20b5df6dda59de4aae2c8218260020154604051610a5491815260200190565b60405180910390a250505050565b610aba6040518061010001604052805f73ffffffffffffffffffffffffffffffffffffffff1681526020015f81526020015f81526020015f81526020015f81526020015f81526020015f151581526020015f81525090565b5073ffffffffffffffffffffffffffffffffffffffff9081165f9081526004602081815260409283902083516101008101855281549095168552600181015491850191909152600281015492840192909252600382015460608401528101546080830152600581015460a0830152600681015460ff16151560c08301526007015460e082015290565b5f6003548211610b565750612710919050565b5f6005600354610b669190610d67565b9050808310610b7757505f92915050565b60035481038382036127100281610b9057610b90610d3a565b049392505050565b803573ffffffffffffffffffffffffffffffffffffffff81168114610bbb575f80fd5b919050565b5f805f8060608587031215610bd3575f80fd5b610bdc85610b98565b935060208501359250604085013567ffffffffffffffff80821115610bff575f80fd5b818701915087601f830112610c12575f80fd5b813581811115610c20575f80fd5b886020828501011115610c31575f80fd5b95989497505060200194505050565b5f60208284031215610c50575f80fd5b610c5982610b98565b9392505050565b5f805f60608486031215610c72575f80fd5b610c7b84610b98565b92506020840135915060408401358015158114610c96575f80fd5b809150509250925092565b83815260406020820152816040820152818360608301375f818301606090810191909152601f9092017fffffffffffffffffffffffffffffffffffffffffffffffffffffffffffffffe016010192915050565b7f4e487b71000000000000000000000000000000000000000000000000000000005f52601160045260245ffd5b80820180821115610d3457610d34610cf4565b92915050565b7f4e487b71000000000000000000000000000000000000000000000000000000005f52601260045260245ffd5b8082028115828204841417610d3457610d34610cf456fea2646970667358221220fef57cf1ed337b2560a5fabb7ea5f8ac3726d9211dbd95a799697b599e88ce2364736f6c63430008180033","linkReferences":{}},"methodIdentifiers":{"coordinator()":"0a009097","deregister()":"aff5edb1","getProver(address)":"faab193c","getProverCount()":"f329a6bd","isActive(address)":"9f8a13d7","minStake()":"375b3c0a","owner()":"8da5cb5b","register()":"1aa3a008","setCoordinator(address)":"8ea98117","slash(address,uint256,string)":"678b3ee2","targetLatencyMs()":"baa0c637","updateReputation(address,uint256,bool)":"ec604e46"},"id":18}