{"abi":[{"type":"constructor","inputs":[{"name":"_proverRegistry","type":"address","internalType":"address"},{"name":"_proofRegistry","type":"address","internalType":"address"},{"name":"_verifyPrecompile","type":"address","internalType":"address"},{"name":"_operator","type":"address","internalType":"address"},{"name":"_minFee","type":"uint256","internalType":"uint256"}],"stateMutability":"nonpayable"},{"type":"function","name":"DEFAULT_VERIFY_PRECOMPILE","inputs":[],"outputs":[{"name":"","type":"address","internalType":"address"}],"stateMutability":"view"},{"type":"function","name":"assignProver","inputs":[{"name":"requestId","type":"bytes32","internalType":"bytes32"},{"name":"prover","type":"address","internalType":"address"}],"outputs":[],"stateMutability":"nonpayable"},{"type":"function","name":"getCircuitVKHash","inputs":[{"name":"circuitId","type":"bytes32","internalType":"bytes32"}],"outputs":[{"name":"","type":"bytes32","internalType":"bytes32"}],"stateMutability":"view"},{"type":"function","name":"getRequest","inputs":[{"name":"requestId","type":"bytes32","internalType":"bytes32"}],"outputs":[{"name":"","type":"tuple","internalType":"struct ICoordinator.ProofRequest","components":[{"name":"requestId","type":"bytes32","internalType":"bytes32"},{"name":"circuitId","type":"bytes32","internalType":"bytes32"},{"name":"requester","type":"address","internalType":"address"},{"name":"maxFee","type":"uint256","internalType":"uint256"},{"name":"deadline","type":"uint256","internalType":"uint256"},{"name":"assignedProver","type":"address","internalType":"address"},{"name":"status","type":"uint8","internalType":"enum ICoordinator.ProofStatus"},{"name":"createdAt","type":"uint256","internalType":"uint256"}]}],"stateMutability":"view"},{"type":"function","name":"getRequestPublicInputsHash","inputs":[{"name":"requestId","type":"bytes32","internalType":"bytes32"}],"outputs":[{"name":"","type":"bytes32","internalType":"bytes32"}],"stateMutability":"view"},{"type":"function","name":"minFee","inputs":[],"outputs":[{"name":"","type":"uint256","internalType":"uint256"}],"stateMutability":"view"},{"type":"function","name":"nonces","inputs":[{"name":"","type":"address","internalType":"address"}],"outputs":[{"name":"","type":"uint256","internalType":"uint256"}],"stateMutability":"view"},{"type":"function","name":"operator","inputs":[],"outputs":[{"name":"","type":"address","internalType":"address"}],"stateMutability":"view"},{"type":"function","name":"proofRegistry","inputs":[],"outputs":[{"name":"","type":"address","internalType":"contract IProofRegistry"}],"stateMutability":"view"},{"type":"function","name":"proverRegistry","inputs":[],"outputs":[{"name":"","type":"address","internalType":"contract IProverRegistry"}],"stateMutability":"view"},{"type":"function","name":"registerCircuit","inputs":[{"name":"circuitId","type":"bytes32","internalType":"bytes32"},{"name":"vkHash","type":"bytes32","internalType":"bytes32"}],"outputs":[],"stateMutability":"nonpayable"},{"type":"function","name":"registeredCircuits","inputs":[{"name":"","type":"bytes32","internalType":"bytes32"}],"outputs":[{"name":"","type":"bytes32","internalType":"bytes32"}],"stateMutability":"view"},{"type":"function","name":"requestProof","inputs":[{"name":"circuitId","type":"bytes32","internalType":"bytes32"},{"name":"publicInputsHash","type":"bytes32","internalType":"bytes32"},{"name":"deadline","type":"uint256","internalType":"uint256"}],"outputs":[{"name":"requestId","type":"bytes32","internalType":"bytes32"}],"stateMutability":"payable"},{"type":"function","name":"requestPublicInputsHash","inputs":[{"name":"","type":"bytes32","internalType":"bytes32"}],"outputs":[{"name":"","type":"bytes32","internalType":"bytes32"}],"stateMutability":"view"},{"type":"function","name":"requests","inputs":[{"name":"","type":"bytes32","internalType":"bytes32"}],"outputs":[{"name":"requestId","type":"bytes32","internalType":"bytes32"},{"name":"circuitId","type":"bytes32","internalType":"bytes32"},{"name":"requester","type":"address","internalType":"address"},{"name":"maxFee","type":"uint256","internalType":"uint256"},{"name":"deadline","type":"uint256","internalType":"uint256"},{"name":"assignedProver","type":"address","internalType":"address"},{"name":"status","type":"uint8","internalType":"enum ICoordinator.ProofStatus"},{"name":"createdAt","type":"uint256","internalType":"uint256"}],"stateMutability":"view"},{"type":"function","name":"setMinFee","inputs":[{"name":"newMinFee","type":"uint256","internalType":"uint256"}],"outputs":[],"stateMutability":"nonpayable"},{"type":"function","name":"setOperator","inputs":[{"name":"newOperator","type":"address","internalType":"address"}],"outputs":[],"stateMutability":"nonpayable"},{"type":"function","name":"submitProof","inputs":[{"name":"requestId","type":"bytes32","internalType":"bytes32"},{"name":"proof","type":"bytes","internalType":"bytes"},{"name":"vk","type":"bytes","internalType":"bytes"},{"name":"publicInputs","type":"bytes","internalType":"bytes"}],"outputs":[],"stateMutability":"nonpayable"},{"type":"function","name":"verifyPrecompile","inputs":[],"outputs":[{"name":"","type":"address","internalType":"address"}],"stateMutability":"view"},{"type":"event","name":"CircuitRegistered","inputs":[{"name":"circuitId","type":"bytes32","indexed":true,"internalType":"bytes32"},{"name":"vkHash","type":"bytes32","indexed":true,"internalType":"bytes32"}],"anonymous":false},{"type":"event","name":"MinFeeUpdated","inputs":[{"name":"previousMinFee","type":"uint256","indexed":false,"internalType":"uint256"},{"name":"newMinFee","type":"uint256","indexed":false,"internalType":"uint256"}],"anonymous":false},{"type":"event","name":"OperatorUpdated","inputs":[{"name":"previousOperator","type":"address","indexed":true,"internalType":"address"},{"name":"newOperator","type":"address","indexed":true,"internalType":"address"}],"anonymous":false},{"type":"event","name":"ProofAssigned","inputs":[{"name":"requestId","type":"bytes32","indexed":true,"internalType":"bytes32"},{"name":"prover","type":"address","indexed":true,"internalType":"address"}],"anonymous":false},{"type":"event","name":"ProofRejected","inputs":[{"name":"requestId","type":"bytes32","indexed":true,"internalType":"bytes32"},{"name":"prover","type":"address","indexed":true,"internalType":"address"},{"name":"reason","type":"string","indexed":false,"internalType":"string"}],"anonymous":false},{"type":"event","name":"ProofRequested","inputs":[{"name":"requestId","type":"bytes32","indexed":true,"internalType":"bytes32"},{"name":"circuitId","type":"bytes32","indexed":true,"internalType":"bytes32"},{"name":"requester","type":"address","indexed":true,"internalType":"address"},{"name":"maxFee","type":"uint256","indexed":false,"internalType":"uint256"},{"name":"deadline","type":"uint256","indexed":false,"internalType":"uint256"}],"anonymous":false},{"type":"event","name":"ProofVerified","inputs":[{"name":"requestId","type":"bytes32","indexed":true,"internalType":"bytes32"},{"name":"proofId","type":"bytes32","indexed":true,"internalType":"bytes32"},{"name":"circuitId","type":"bytes32","indexed":false,"internalType":"bytes32"},{"name":"timestamp","type":"uint256","indexed":false,"internalType":"uint256"}],"anonymous":false},{"type":"error","name":"CircuitAlreadyRegistered","inputs":[]},{"type":"error","name":"InsufficientFee","inputs":[]},{"type":"error","name":"InvalidCircuitId","inputs":[]},{"type":"error","name":"InvalidDeadline","inputs":[]},{"type":"error","name":"InvalidStatus","inputs":[]},{"type":"error","name":"InvalidVKHash","inputs":[]},{"type":"error","name":"ProofAlreadyVerified","inputs":[]},{"type":"error","name":"ProverNotRegistered","inputs":[]},{"type":"error","name":"PublicInputsMismatch","inputs":[]},{"type":"error","name":"ReentrancyGuardReentrantCall","inputs":[]},{"type":"error","name":"RequestExpired","inputs":[]},{"type":"error","name":"RequestNotFound","inputs":[]},{"type":"error","name":"TransferFailed","inputs":[]},{"type":"error","name":"Unauthorized","inputs":[]},{"type":"error","name":"VerificationFailed","inputs":[]},{"type":"error","name":"ZeroAddress","inputs":[]}],"bytecode":{"object":"0x60e060405234801562000010575f80fd5b5060405162001dbf38038062001dbf833981016040819052620000339162000127565b6001600160a01b0385166200005b5760405163d92e233d60e01b815260040160405180910390fd5b6001600160a01b038416620000835760405163d92e233d60e01b815260040160405180910390fd5b6001600160a01b038316620000ab5760405163d92e233d60e01b815260040160405180910390fd5b6001600160a01b038216620000d35760405163d92e233d60e01b815260040160405180910390fd5b6001600160a01b0394851660805292841660a05290831660c0525f80546001600160a01b03191691909316179091556001556200018a565b80516001600160a01b038116811462000122575f80fd5b919050565b5f805f805f60a086880312156200013c575f80fd5b62000147866200010b565b945062000157602087016200010b565b935062000167604087016200010b565b925062000177606087016200010b565b9150608086015190509295509295909350565b60805160a05160c051611be7620001d85f395f818161019b015261074d01525f81816103a70152610b0b01525f81816104560152818161092601528181610bd6015261107f0152611be75ff3fe60806040526004361061013d575f3560e01c80637ecebe00116100bb578063c008fac311610071578063eda3150411610057578063eda3150414610445578063f4abfea514610478578063fb1e61ca146104a3575f80fd5b8063c008fac314610407578063e0d3016314610432575f80fd5b8063af1bd827116100a1578063af1bd82714610396578063af2e8f8a146103c9578063b3ab15fb146103e8575f80fd5b80637ecebe00146102c85780639d866985146102f3575f80fd5b806342a412dc1161011057806347a5d251116100f657806347a5d25114610247578063494217ca14610272578063570ca7351461029d575f80fd5b806342a412dc1461020157806343bf359114610220575f80fd5b80631af7cb891461014157806324ec7590146101625780632773bf1d1461018a57806331ac9920146101e2575b5f80fd5b34801561014c575f80fd5b5061016061015b366004611749565b6104cf565b005b34801561016d575f80fd5b5061017760015481565b6040519081526020015b60405180910390f35b348015610195575f80fd5b506101bd7f000000000000000000000000000000000000000000000000000000000000000081565b60405173ffffffffffffffffffffffffffffffffffffffff9091168152602001610181565b3480156101ed575f80fd5b506101606101fc3660046117e5565b610d23565b34801561020c575f80fd5b5061016061021b3660046117fc565b610db8565b34801561022b575f80fd5b506101bd73030000000000000000000000000000000000000281565b348015610252575f80fd5b506101776102613660046117e5565b5f9081526002602052604090205490565b34801561027d575f80fd5b5061017761028c3660046117e5565b60056020525f908152604090205481565b3480156102a8575f80fd5b505f546101bd9073ffffffffffffffffffffffffffffffffffffffff1681565b3480156102d3575f80fd5b506101776102e2366004611844565b60046020525f908152604090205481565b3480156102fe575f80fd5b5061038261030d3660046117e5565b600360208190525f918252604090912080546001820154600283015493830154600484015460058501546006909501549395929473ffffffffffffffffffffffffffffffffffffffff9384169492939192918116917401000000000000000000000000000000000000000090910460ff169088565b6040516101819897969594939291906118ca565b3480156103a1575f80fd5b506101bd7f000000000000000000000000000000000000000000000000000000000000000081565b3480156103d4575f80fd5b506101606103e336600461192b565b610ef9565b3480156103f3575f80fd5b50610160610402366004611844565b6111aa565b348015610412575f80fd5b506101776104213660046117e5565b5f9081526005602052604090205490565b610177610440366004611955565b6112bb565b348015610450575f80fd5b506101bd7f000000000000000000000000000000000000000000000000000000000000000081565b348015610483575f80fd5b506101776104923660046117e5565b60026020525f908152604090205481565b3480156104ae575f80fd5b506104c26104bd3660046117e5565b6115bf565b604051610181919061197e565b60016006540361050b576040517f3ee5aeb500000000000000000000000000000000000000000000000000000000815260040160405180910390fd5b600160069081555f88815260036020526040812091820154900361055b576040517f4b13b31e00000000000000000000000000000000000000000000000000000000815260040160405180910390fd5b600160058281015474010000000000000000000000000000000000000000900460ff169081111561058e5761058e611864565b146105c5576040517ff525e32000000000000000000000000000000000000000000000000000000000815260040160405180910390fd5b600581015473ffffffffffffffffffffffffffffffffffffffff163314610618576040517f82b4290000000000000000000000000000000000000000000000000000000000815260040160405180910390fd5b42816004015411610655576040517ffef01cd200000000000000000000000000000000000000000000000000000000815260040160405180910390fd5b60018101545f908152600260205260409081902054905161067990879087906119f9565b6040518091039020146106b8576040517f79e2f8ea00000000000000000000000000000000000000000000000000000000815260040160405180910390fd5b5f806106c5602085611a08565b90505f8167ffffffffffffffff8111156106e1576106e1611a40565b60405190808252806020026020018201604052801561070a578160200160208202803683370190505b5090505f5b82811015610748575f6020820288013590508083838151811061073457610734611a6d565b60209081029190910101525060010161070f565b505f807f000000000000000000000000000000000000000000000000000000000000000073ffffffffffffffffffffffffffffffffffffffff168c8c8c8c8760405160240161079b959493929190611ae1565b604080517fffffffffffffffffffffffffffffffffffffffffffffffffffffffffffffffe08184030181529181526020820180517bffffffffffffffffffffffffffffffffffffffffffffffffffffffff167fc96276e3000000000000000000000000000000000000000000000000000000001790525161081c9190611b4f565b5f60405180830381855afa9150503d805f8114610854576040519150601f19603f3d011682016040523d82523d5f602084013e610859565b606091505b509150915081801561086d57506020815110155b80156108885750808060200190518101906108889190611b7b565b94505050505080610a0357600582018054740400000000000000000000000000000000000000007fffffffffffffffffffffff00ffffffffffffffffffffffffffffffffffffffff9091161790556040517fec604e460000000000000000000000000000000000000000000000000000000081523360048201525f60248201819052604482015273ffffffffffffffffffffffffffffffffffffffff7f0000000000000000000000000000000000000000000000000000000000000000169063ec604e46906064015f604051808303815f87803b158015610967575f80fd5b505af1158015610979573d5f803e3d5ffd5b505050503373ffffffffffffffffffffffffffffffffffffffff16897f3613ee93c3305226042237f9adff802acd54628c237b76935c368f5ce8d789ea6040516109f49060208082526013908201527f766572696669636174696f6e5f6661696c656400000000000000000000000000604082015260600190565b60405180910390a35050610d16565b5f898989604051610a159291906119f9565b604051908190038120610a349291602001918252602082015260400190565b604080517fffffffffffffffffffffffffffffffffffffffffffffffffffffffffffffffe08184030181529082905280516020909101206005850180547fffffffffffffffffffffff00ffffffffffffffffffffffffffffffffffffffff167403000000000000000000000000000000000000000017905591505f90610abd90879087906119f9565b60405190819003812060018601547f3df888120000000000000000000000000000000000000000000000000000000083526004830185905260248301526044820181905242606483015291507f000000000000000000000000000000000000000000000000000000000000000073ffffffffffffffffffffffffffffffffffffffff1690633df88812906084016020604051808303815f875af1158015610b66573d5f803e3d5ffd5b505050506040513d601f19601f82011682018060405250810190610b8a9190611b9a565b5060068401546040517fec604e4600000000000000000000000000000000000000000000000000000000815233600482015242919091036103e8026024820181905260016044830152907f000000000000000000000000000000000000000000000000000000000000000073ffffffffffffffffffffffffffffffffffffffff169063ec604e46906064015f604051808303815f87803b158015610c2c575f80fd5b505af1158015610c3e573d5f803e3d5ffd5b5050506001860154604080519182524260208301528592508e917f62f53a2e9903c031b965e6767bc84ff87103f45e6fa57cd5192f1314185acf6b910160405180910390a360038501548015610d0f576040515f90339083908381818185875af1925050503d805f8114610ccd576040519150601f19603f3d011682016040523d82523d5f602084013e610cd2565b606091505b5050905080610d0d576040517f90b8ec1800000000000000000000000000000000000000000000000000000000815260040160405180910390fd5b505b5050505050505b50505f6006555050505050565b5f5473ffffffffffffffffffffffffffffffffffffffff163314610d73576040517f82b4290000000000000000000000000000000000000000000000000000000000815260040160405180910390fd5b600180549082905560408051828152602081018490527f5018b39d505f13b5bddbbd98cba44cc46858c58b32c59c13b3a66848058e67e3910160405180910390a15050565b5f5473ffffffffffffffffffffffffffffffffffffffff163314610e08576040517f82b4290000000000000000000000000000000000000000000000000000000000815260040160405180910390fd5b81610e3f576040517f3c3397a600000000000000000000000000000000000000000000000000000000815260040160405180910390fd5b80610e76576040517f79e2f8ea00000000000000000000000000000000000000000000000000000000815260040160405180910390fd5b5f8281526002602052604090205415610ebb576040517f9ac3af6d00000000000000000000000000000000000000000000000000000000815260040160405180910390fd5b5f8281526002602052604080822083905551829184917f0c0a24b6df1c79937f11630213e862598b746e2fd4b87c3627238b47e1a6c0159190a35050565b5f5473ffffffffffffffffffffffffffffffffffffffff163314610f49576040517f82b4290000000000000000000000000000000000000000000000000000000000815260040160405180910390fd5b5f8281526003602052604081206006810154909103610f94576040517f4b13b31e00000000000000000000000000000000000000000000000000000000815260040160405180910390fd5b5f60058281015474010000000000000000000000000000000000000000900460ff1690811115610fc657610fc6611864565b14610ffd576040517ff525e32000000000000000000000000000000000000000000000000000000000815260040160405180910390fd5b4281600401541161103a576040517ffef01cd200000000000000000000000000000000000000000000000000000000815260040160405180910390fd5b6040517f9f8a13d700000000000000000000000000000000000000000000000000000000815273ffffffffffffffffffffffffffffffffffffffff83811660048301527f00000000000000000000000000000000000000000000000000000000000000001690639f8a13d790602401602060405180830381865afa1580156110c4573d5f803e3d5ffd5b505050506040513d601f19601f820116820180604052508101906110e89190611b7b565b61111e576040517f0bc7a9ce00000000000000000000000000000000000000000000000000000000815260040160405180910390fd5b60058101805473ffffffffffffffffffffffffffffffffffffffff84167fffffffffffffffffffffff0000000000000000000000000000000000000000009091168117740100000000000000000000000000000000000000001790915560405184907f6883d7199bbf139092cc1cd659b72bdd425f968ee299ed400cda1e4f80da46eb905f90a3505050565b5f5473ffffffffffffffffffffffffffffffffffffffff1633146111fa576040517f82b4290000000000000000000000000000000000000000000000000000000000815260040160405180910390fd5b73ffffffffffffffffffffffffffffffffffffffff8116611247576040517fd92e233d00000000000000000000000000000000000000000000000000000000815260040160405180910390fd5b5f805473ffffffffffffffffffffffffffffffffffffffff8381167fffffffffffffffffffffffff0000000000000000000000000000000000000000831681178455604051919092169283917ffbe5b6cbafb274f445d7fed869dc77a838d8243a22c460de156560e8857cad039190a35050565b5f838152600260205260408120546112ff576040517f3c3397a600000000000000000000000000000000000000000000000000000000815260040160405180910390fd5b60015434101561133b576040517f025dbdd400000000000000000000000000000000000000000000000000000000815260040160405180910390fd5b428211611374576040517f769d11e400000000000000000000000000000000000000000000000000000000815260040160405180910390fd5b335f81815260046020908152604091829020805460018101909155915191926113de928892429186910193845260609290921b7fffffffffffffffffffffffffffffffffffffffff0000000000000000000000001660208401526034830152605482015260740190565b6040516020818303038152906040528051906020012091506040518061010001604052808381526020018681526020013373ffffffffffffffffffffffffffffffffffffffff1681526020013481526020018481526020015f73ffffffffffffffffffffffffffffffffffffffff1681526020015f600581111561146457611464611864565b8152426020918201525f848152600380835260409182902084518155928401516001840155908301516002830180547fffffffffffffffffffffffff000000000000000000000000000000000000000090811673ffffffffffffffffffffffffffffffffffffffff938416179091556060850151928401929092556080840151600484015560a08401516005808501805494851692909316918217835560c0860151937fffffffffffffffffffffff00000000000000000000000000000000000000000016909117907401000000000000000000000000000000000000000090849081111561155557611555611864565b021790555060e091909101516006909101555f8281526005602090815260409182902086905581513481529081018590523391879185917f35775f52d0db8d8e47d6c1f13f599873792f2ef4bb52e24de956c47b7c2c5324910160405180910390a4509392505050565b60408051610100810182525f80825260208201819052918101829052606081018290526080810182905260a0810182905260c0810182905260e08101919091525f828152600360205260408120600681015490910361164a576040517f4b13b31e00000000000000000000000000000000000000000000000000000000815260040160405180910390fd5b60408051610100810182528254815260018301546020820152600283015473ffffffffffffffffffffffffffffffffffffffff90811692820192909252600383015460608201526004830154608082015260058084015492831660a08301529091839160c084019174010000000000000000000000000000000000000000900460ff16908111156116dd576116dd611864565b60058111156116ee576116ee611864565b8152602001600682015481525050915050919050565b5f8083601f840112611714575f80fd5b50813567ffffffffffffffff81111561172b575f80fd5b602083019150836020828501011115611742575f80fd5b9250929050565b5f805f805f805f6080888a03121561175f575f80fd5b87359650602088013567ffffffffffffffff8082111561177d575f80fd5b6117898b838c01611704565b909850965060408a01359150808211156117a1575f80fd5b6117ad8b838c01611704565b909650945060608a01359150808211156117c5575f80fd5b506117d28a828b01611704565b989b979a50959850939692959293505050565b5f602082840312156117f5575f80fd5b5035919050565b5f806040838503121561180d575f80fd5b50508035926020909101359150565b803573ffffffffffffffffffffffffffffffffffffffff8116811461183f575f80fd5b919050565b5f60208284031215611854575f80fd5b61185d8261181c565b9392505050565b7f4e487b71000000000000000000000000000000000000000000000000000000005f52602160045260245ffd5b600681106118c6577f4e487b71000000000000000000000000000000000000000000000000000000005f52602160045260245ffd5b9052565b8881526020810188905273ffffffffffffffffffffffffffffffffffffffff87811660408301526060820187905260808201869052841660a0820152610100810161191860c0830185611891565b8260e08301529998505050505050505050565b5f806040838503121561193c575f80fd5b8235915061194c6020840161181c565b90509250929050565b5f805f60608486031215611967575f80fd5b505081359360208301359350604090920135919050565b5f610100820190508251825260208301516020830152604083015173ffffffffffffffffffffffffffffffffffffffff808216604085015260608501516060850152608085015160808501528060a08601511660a0850152505060c08301516119ea60c0840182611891565b5060e092830151919092015290565b818382375f9101908152919050565b5f82611a3b577f4e487b71000000000000000000000000000000000000000000000000000000005f52601260045260245ffd5b500490565b7f4e487b71000000000000000000000000000000000000000000000000000000005f52604160045260245ffd5b7f4e487b71000000000000000000000000000000000000000000000000000000005f52603260045260245ffd5b81835281816020850137505f602082840101525f60207fffffffffffffffffffffffffffffffffffffffffffffffffffffffffffffffe0601f840116840101905092915050565b606081525f611af4606083018789611a9a565b60208382036020850152611b09828789611a9a565b8481036040860152855180825260208088019450909101905f5b81811015611b3f57845183529383019391830191600101611b23565b50909a9950505050505050505050565b5f82515f5b81811015611b6e5760208186018101518583015201611b54565b505f920191825250919050565b5f60208284031215611b8b575f80fd5b8151801515811461185d575f80fd5b5f60208284031215611baa575f80fd5b505191905056fea26469706673582212203493cd6c2592139732c08b884f36ebaf529da019a3d0b5896afc94e08080b7ff64736f6c63430008180033","linkReferences":{}},"methodIdentifiers":{"DEFAULT_VERIFY_PRECOMPILE()":"43bf3591","assignProver(bytes32,address)":"af2e8f8a","getCircuitVKHash(bytes32)":"47a5d251","getRequest(bytes32)":"fb1e61ca","getRequestPublicInputsHash(bytes32)":"c008fac3","minFee()":"24ec7590","nonces(address)":"7ecebe00","operator()":"570ca735","proofRegistry()":"af1bd827","proverRegistry()":"eda31504","registerCircuit(bytes32,bytes32)":"42a412dc","registeredCircuits(bytes32)":"f4abfea5","requestProof(bytes32,bytes32,uint256)":"e0d30163","requestPublicInputsHash(bytes32)":"494217ca","requests(bytes32)":"9d866985","setMinFee(uint256)":"31ac9920","setOperator(address)":"b3ab15fb","submitProof(bytes32,bytes,bytes,bytes)":"1af7cb89","verifyPrecompile()":"2773bf1d"},"id":21}