{"abi":[{"type":"constructor","inputs":[{"name":"_proverRegistry","type":"address","internalType":"address"},{"name":"_proofRegistry","type":"address","internalType":"address"},{"name":"_verifyPrecompile","type":"address","internalType":"address"},{"name":"_operator","type":"address","internalType":"address"},{"name":"_minFee","type":"uint256","internalType":"uint256"}],"stateMutability":"nonpayable"},{"type":"function","name":"DEFAULT_VERIFY_PRECOMPILE","inputs":[],"outputs":[{"name":"","type":"address","internalType":"address"}],"stateMutability":"view"},{"type":"function","name":"assignProver","inputs":[{"name":"requestId","type":"bytes32","internalType":"bytes32"},{"name":"prover","type":"address","internalType":"address"}],"outputs":[],"stateMutability":"nonpayable"},{"type":"function","name":"getCircuitVKHash","inputs":[{"name":"circuitId","type":"bytes32","internalType":"bytes32"}],"outputs":[{"name":"","type":"bytes32","internalType":"bytes32"}],"stateMutability":"view"},{"type":"function","name":"getRequest","inputs":[{"name":"requestId","type":"bytes32","internalType":"bytes32"}],"outputs":[{"name":"","type":"tuple","internalType":"struct ICoordinator.ProofRequest","components":[{"name":"requestId","type":"bytes32","internalType":"bytes32"},{"name":"circuitId","type":"bytes32","internalType":"bytes32"},{"name":"requester","type":"address","internalType":"address"},{"name":"maxFee","type":"uint256","internalType":"uint256"},{"name":"deadline","type":"uint256","internalType":"uint256"},{"name":"assignedProver","type":"address","internalType":"address"},{"name":"status","type":"uint8","internalType":"enum ICoordinator.ProofStatus"},{"name":"createdAt","type":"uint256","internalType":"uint256"}]}],"stateMutability":"view"},{"type":"function","name":"getRequestPublicInputsHash","inputs":[{"name":"requestId","type":"bytes32","internalType":"bytes32"}],"outputs":[{"name":"","type":"bytes32","internalType":"bytes32"}],"stateMutability":"view"},{"type":"function","name":"minFee","inputs":[],"outputs":[{"name":"","type":"uint256","internalType":"uint256"}],"stateMutability":"view"},{"type":"function","name":"nonces","inputs":[{"name":"","type":"address","internalType":"address"}],"outputs":[{"name":"","type":"uint256","internalType":"uint256"}],"stateMutability":"view"},{"type":"function","name":"operator","inputs":[],"outputs":[{"name":"","type":"address","internalType":"address"}],"stateMutability":"view"},{"type":"function","name":"proofRegistry","inputs":[],"outputs":[{"name":"","type":"address","internalType":"contract IProofRegistry"}],"stateMutability":"view"},{"type":"function","name":"proverRegistry","inputs":[],"outputs":[{"name":"","type":"address","internalType":"contract IProverRegistry"}],"stateMutability":"view"},{"type":"function","name":"registerCircuit","inputs":[{"name":"circuitId","type":"bytes32","internalType":"bytes32"},{"name":"vkHash","type":"bytes32","internalType":"bytes32"}],"outputs":[],"stateMutability":"nonpayable"},{"type":"function","name":"registeredCircuits","inputs":[{"name":"","type":"bytes32","internalType":"bytes32"}],"outputs":[{"name":"","type":"bytes32","internalType":"bytes32"}],"stateMutability":"view"},{"type":"function","name":"requestProof","inputs":[{"name":"circuitId","type":"bytes32","internalType":"bytes32"},{"name":"publicInputsHash","type":"bytes32","internalType":"bytes32"},{"name":"deadline","type":"uint256","internalType":"uint256"}],"outputs":[{"name":"requestId","type":"bytes32","internalType":"bytes32"}],"stateMutability":"payable"},{"type":"function","name":"requestPublicInputsHash","inputs":[{"name":"","type":"bytes32","internalType":"bytes32"}],"outputs":[{"name":"","type":"bytes32","internalType":"bytes32"}],"stateMutability":"view"},{"type":"function","name":"requests","inputs":[{"name":"","type":"bytes32","internalType":"bytes32"}],"outputs":[{"name":"requestId","type":"bytes32","internalType":"bytes32"},{"name":"circuitId","type":"bytes32","internalType":"bytes32"},{"name":"requester","type":"address","internalType":"address"},{"name":"maxFee","type":"uint256","internalType":"uint256"},{"name":"deadline","type":"uint256","internalType":"uint256"},{"name":"assignedProver","type":"address","internalType":"address"},{"name":"status","type":"uint8","internalType":"enum ICoordinator.ProofStatus"},{"name":"createdAt","type":"uint256","internalType":"uint256"}],"stateMutability":"view"},{"type":"function","name":"setMinFee","inputs":[{"name":"newMinFee","type":"uint256","internalType":"uint256"}],"outputs":[],"stateMutability":"nonpayable"},{"type":"function","name":"setOperator","inputs":[{"name":"newOperator","type":"address","internalType":"address"}],"outputs":[],"stateMutability":"nonpayable"},{"type":"function","name":"submitProof","inputs":[{"name":"requestId","type":"bytes32","internalType":"bytes32"},{"name":"proof","type":"bytes","internalType":"bytes"},{"name":"publicInputs","type":"bytes","internalType":"bytes"}],"outputs":[],"stateMutability":"nonpayable"},{"type":"function","name":"verifyPrecompile","inputs":[],"outputs":[{"name":"","type":"address","internalType":"address"}],"stateMutability":"view"},{"type":"event","name":"CircuitRegistered","inputs":[{"name":"circuitId","type":"bytes32","indexed":true,"internalType":"bytes32"},{"name":"vkHash","type":"bytes32","indexed":true,"internalType":"bytes32"}],"anonymous":false},{"type":"event","name":"MinFeeUpdated","inputs":[{"name":"previousMinFee","type":"uint256","indexed":false,"internalType":"uint256"},{"name":"newMinFee","type":"uint256","indexed":false,"internalType":"uint256"}],"anonymous":false},{"type":"event","name":"OperatorUpdated","inputs":[{"name":"previousOperator","type":"address","indexed":true,"internalType":"address"},{"name":"newOperator","type":"address","indexed":true,"internalType":"address"}],"anonymous":false},{"type":"event","name":"ProofAssigned","inputs":[{"name":"requestId","type":"bytes32","indexed":true,"internalType":"bytes32"},{"name":"prover","type":"address","indexed":true,"internalType":"address"}],"anonymous":false},{"type":"event","name":"ProofRejected","inputs":[{"name":"requestId","type":"bytes32","indexed":true,"internalType":"bytes32"},{"name":"prover","type":"address","indexed":true,"internalType":"address"},{"name":"reason","type":"string","indexed":false,"internalType":"string"}],"anonymous":false},{"type":"event","name":"ProofRequested","inputs":[{"name":"requestId","type":"bytes32","indexed":true,"internalType":"bytes32"},{"name":"circuitId","type":"bytes32","indexed":true,"internalType":"bytes32"},{"name":"requester","type":"address","indexed":true,"internalType":"address"},{"name":"maxFee","type":"uint256","indexed":false,"internalType":"uint256"},{"name":"deadline","type":"uint256","indexed":false,"internalType":"uint256"}],"anonymous":false},{"type":"event","name":"ProofVerified","inputs":[{"name":"requestId","type":"bytes32","indexed":true,"internalType":"bytes32"},{"name":"proofId","type":"bytes32","indexed":true,"internalType":"bytes32"},{"name":"circuitId","type":"bytes32","indexed":false,"internalType":"bytes32"},{"name":"timestamp","type":"uint256","indexed":false,"internalType":"uint256"}],"anonymous":false},{"type":"error","name":"CircuitAlreadyRegistered","inputs":[]},{"type":"error","name":"InsufficientFee","inputs":[]},{"type":"error","name":"InvalidCircuitId","inputs":[]},{"type":"error","name":"InvalidDeadline","inputs":[]},{"type":"error","name":"InvalidStatus","inputs":[]},{"type":"error","name":"InvalidVKHash","inputs":[]},{"type":"error","name":"ProofAlreadyVerified","inputs":[]},{"type":"error","name":"ProverNotRegistered","inputs":[]},{"type":"error","name":"PublicInputsMismatch","inputs":[]},{"type":"error","name":"ReentrancyGuardReentrantCall","inputs":[]},{"type":"error","name":"RequestExpired","inputs":[]},{"type":"error","name":"RequestNotFound","inputs":[]},{"type":"error","name":"TransferFailed","inputs":[]},{"type":"error","name":"Unauthorized","inputs":[]},{"type":"error","name":"VerificationFailed","inputs":[]},{"type":"error","name":"ZeroAddress","inputs":[]}],"bytecode":{"object":"0x60e060405234801562000010575f80fd5b5060405162001c2038038062001c20833981016040819052620000339162000127565b6001600160a01b0385166200005b5760405163d92e233d60e01b815260040160405180910390fd5b6001600160a01b038416620000835760405163d92e233d60e01b815260040160405180910390fd5b6001600160a01b038316620000ab5760405163d92e233d60e01b815260040160405180910390fd5b6001600160a01b038216620000d35760405163d92e233d60e01b815260040160405180910390fd5b6001600160a01b0394851660805292841660a05290831660c0525f80546001600160a01b03191691909316179091556001556200018a565b80516001600160a01b038116811462000122575f80fd5b919050565b5f805f805f60a086880312156200013c575f80fd5b62000147866200010b565b945062000157602087016200010b565b935062000167604087016200010b565b925062000177606087016200010b565b9150608086015190509295509295909350565b60805160a05160c051611a48620001d85f395f818161017a0152610f0e01525f818161038801526112ca01525f81816104560152818161082b015281816110e201526113950152611a485ff3fe60806040526004361061013d575f3560e01c80639d866985116100bb578063e0d3016311610071578063eda3150411610057578063eda3150414610445578063f4abfea514610478578063fb1e61ca146104a3575f80fd5b8063e0d3016314610413578063eb90e2cb14610426575f80fd5b8063af2e8f8a116100a1578063af2e8f8a146103aa578063b3ab15fb146103c9578063c008fac3146103e8575f80fd5b80639d866985146102d4578063af1bd82714610377575f80fd5b806343bf359111610110578063494217ca116100f6578063494217ca14610253578063570ca7351461027e5780637ecebe00146102a9575f80fd5b806343bf35911461020157806347a5d25114610228575f80fd5b806324ec7590146101415780632773bf1d1461016957806331ac9920146101c157806342a412dc146101e2575b5f80fd5b34801561014c575f80fd5b5061015660015481565b6040519081526020015b60405180910390f35b348015610174575f80fd5b5061019c7f000000000000000000000000000000000000000000000000000000000000000081565b60405173ffffffffffffffffffffffffffffffffffffffff9091168152602001610160565b3480156101cc575f80fd5b506101e06101db366004611628565b6104cf565b005b3480156101ed575f80fd5b506101e06101fc36600461163f565b610564565b34801561020c575f80fd5b5061019c73030000000000000000000000000000000000000281565b348015610233575f80fd5b50610156610242366004611628565b5f9081526002602052604090205490565b34801561025e575f80fd5b5061015661026d366004611628565b60056020525f908152604090205481565b348015610289575f80fd5b505f5461019c9073ffffffffffffffffffffffffffffffffffffffff1681565b3480156102b4575f80fd5b506101566102c3366004611687565b60046020525f908152604090205481565b3480156102df575f80fd5b506103636102ee366004611628565b600360208190525f918252604090912080546001820154600283015493830154600484015460058501546006909501549395929473ffffffffffffffffffffffffffffffffffffffff9384169492939192918116917401000000000000000000000000000000000000000090910460ff169088565b60405161016098979695949392919061170d565b348015610382575f80fd5b5061019c7f000000000000000000000000000000000000000000000000000000000000000081565b3480156103b5575f80fd5b506101e06103c436600461176e565b6106a5565b3480156103d4575f80fd5b506101e06103e3366004611687565b610956565b3480156103f3575f80fd5b50610156610402366004611628565b5f9081526005602052604090205490565b610156610421366004611798565b610a67565b348015610431575f80fd5b506101e0610440366004611806565b610d6b565b348015610450575f80fd5b5061019c7f000000000000000000000000000000000000000000000000000000000000000081565b348015610483575f80fd5b50610156610492366004611628565b60026020525f908152604090205481565b3480156104ae575f80fd5b506104c26104bd366004611628565b6114e3565b604051610160919061187a565b5f5473ffffffffffffffffffffffffffffffffffffffff16331461051f576040517f82b4290000000000000000000000000000000000000000000000000000000000815260040160405180910390fd5b600180549082905560408051828152602081018490527f5018b39d505f13b5bddbbd98cba44cc46858c58b32c59c13b3a66848058e67e3910160405180910390a15050565b5f5473ffffffffffffffffffffffffffffffffffffffff1633146105b4576040517f82b4290000000000000000000000000000000000000000000000000000000000815260040160405180910390fd5b816105eb576040517f3c3397a600000000000000000000000000000000000000000000000000000000815260040160405180910390fd5b80610622576040517f79e2f8ea00000000000000000000000000000000000000000000000000000000815260040160405180910390fd5b5f8281526002602052604090205415610667576040517f9ac3af6d00000000000000000000000000000000000000000000000000000000815260040160405180910390fd5b5f8281526002602052604080822083905551829184917f0c0a24b6df1c79937f11630213e862598b746e2fd4b87c3627238b47e1a6c0159190a35050565b5f5473ffffffffffffffffffffffffffffffffffffffff1633146106f5576040517f82b4290000000000000000000000000000000000000000000000000000000000815260040160405180910390fd5b5f8281526003602052604081206006810154909103610740576040517f4b13b31e00000000000000000000000000000000000000000000000000000000815260040160405180910390fd5b5f60058281015474010000000000000000000000000000000000000000900460ff1690811115610772576107726116a7565b146107a9576040517ff525e32000000000000000000000000000000000000000000000000000000000815260040160405180910390fd5b428160040154116107e6576040517ffef01cd200000000000000000000000000000000000000000000000000000000815260040160405180910390fd5b6040517f9f8a13d700000000000000000000000000000000000000000000000000000000815273ffffffffffffffffffffffffffffffffffffffff83811660048301527f00000000000000000000000000000000000000000000000000000000000000001690639f8a13d790602401602060405180830381865afa158015610870573d5f803e3d5ffd5b505050506040513d601f19601f8201168201806040525081019061089491906118f5565b6108ca576040517f0bc7a9ce00000000000000000000000000000000000000000000000000000000815260040160405180910390fd5b60058101805473ffffffffffffffffffffffffffffffffffffffff84167fffffffffffffffffffffff0000000000000000000000000000000000000000009091168117740100000000000000000000000000000000000000001790915560405184907f6883d7199bbf139092cc1cd659b72bdd425f968ee299ed400cda1e4f80da46eb905f90a3505050565b5f5473ffffffffffffffffffffffffffffffffffffffff1633146109a6576040517f82b4290000000000000000000000000000000000000000000000000000000000815260040160405180910390fd5b73ffffffffffffffffffffffffffffffffffffffff81166109f3576040517fd92e233d00000000000000000000000000000000000000000000000000000000815260040160405180910390fd5b5f805473ffffffffffffffffffffffffffffffffffffffff8381167fffffffffffffffffffffffff0000000000000000000000000000000000000000831681178455604051919092169283917ffbe5b6cbafb274f445d7fed869dc77a838d8243a22c460de156560e8857cad039190a35050565b5f83815260026020526040812054610aab576040517f3c3397a600000000000000000000000000000000000000000000000000000000815260040160405180910390fd5b600154341015610ae7576040517f025dbdd400000000000000000000000000000000000000000000000000000000815260040160405180910390fd5b428211610b20576040517f769d11e400000000000000000000000000000000000000000000000000000000815260040160405180910390fd5b335f8181526004602090815260409182902080546001810190915591519192610b8a928892429186910193845260609290921b7fffffffffffffffffffffffffffffffffffffffff0000000000000000000000001660208401526034830152605482015260740190565b6040516020818303038152906040528051906020012091506040518061010001604052808381526020018681526020013373ffffffffffffffffffffffffffffffffffffffff1681526020013481526020018481526020015f73ffffffffffffffffffffffffffffffffffffffff1681526020015f6005811115610c1057610c106116a7565b8152426020918201525f848152600380835260409182902084518155928401516001840155908301516002830180547fffffffffffffffffffffffff000000000000000000000000000000000000000090811673ffffffffffffffffffffffffffffffffffffffff938416179091556060850151928401929092556080840151600484015560a08401516005808501805494851692909316918217835560c0860151937fffffffffffffffffffffff000000000000000000000000000000000000000000169091179074010000000000000000000000000000000000000000908490811115610d0157610d016116a7565b021790555060e091909101516006909101555f8281526005602090815260409182902086905581513481529081018590523391879185917f35775f52d0db8d8e47d6c1f13f599873792f2ef4bb52e24de956c47b7c2c5324910160405180910390a4509392505050565b600160065403610da7576040517f3ee5aeb500000000000000000000000000000000000000000000000000000000815260040160405180910390fd5b600160069081555f868152600360205260408120918201549003610df7576040517f4b13b31e00000000000000000000000000000000000000000000000000000000815260040160405180910390fd5b600160058281015474010000000000000000000000000000000000000000900460ff1690811115610e2a57610e2a6116a7565b14610e61576040517ff525e32000000000000000000000000000000000000000000000000000000000815260040160405180910390fd5b600581015473ffffffffffffffffffffffffffffffffffffffff163314610eb4576040517f82b4290000000000000000000000000000000000000000000000000000000000815260040160405180910390fd5b42816004015411610ef1576040517ffef01cd200000000000000000000000000000000000000000000000000000000815260040160405180910390fd5b5f60025f836001015481526020019081526020015f205490505f807f000000000000000000000000000000000000000000000000000000000000000073ffffffffffffffffffffffffffffffffffffffff168888858989604051602001610f5c95949392919061195b565b604080517fffffffffffffffffffffffffffffffffffffffffffffffffffffffffffffffe081840301815290829052610f9491611993565b5f60405180830381855afa9150503d805f8114610fcc576040519150601f19603f3d011682016040523d82523d5f602084013e610fd1565b606091505b50915091505f828015610fe457505f8251115b80156110485750815f81518110610ffd57610ffd6119bf565b6020910101517fff00000000000000000000000000000000000000000000000000000000000000167f0100000000000000000000000000000000000000000000000000000000000000145b9050806111c257600585018054740400000000000000000000000000000000000000007fffffffffffffffffffffff00ffffffffffffffffffffffffffffffffffffffff9091161790556040517fec604e460000000000000000000000000000000000000000000000000000000081523360048201525f60248201819052604482015273ffffffffffffffffffffffffffffffffffffffff7f0000000000000000000000000000000000000000000000000000000000000000169063ec604e46906064015f604051808303815f87803b158015611123575f80fd5b505af1158015611135573d5f803e3d5ffd5b505050503373ffffffffffffffffffffffffffffffffffffffff168a7f3613ee93c3305226042237f9adff802acd54628c237b76935c368f5ce8d789ea6040516111b09060208082526013908201527f766572696669636174696f6e5f6661696c656400000000000000000000000000604082015260600190565b60405180910390a350505050506114d8565b5f8a8a8a6040516111d49291906119ec565b6040519081900381206111f39291602001918252602082015260400190565b604080517fffffffffffffffffffffffffffffffffffffffffffffffffffffffffffffffe08184030181529082905280516020909101206005880180547fffffffffffffffffffffff00ffffffffffffffffffffffffffffffffffffffff167403000000000000000000000000000000000000000017905591505f9061127c908a908a906119ec565b60405190819003812060018901547f3df888120000000000000000000000000000000000000000000000000000000083526004830185905260248301526044820181905242606483015291507f000000000000000000000000000000000000000000000000000000000000000073ffffffffffffffffffffffffffffffffffffffff1690633df88812906084016020604051808303815f875af1158015611325573d5f803e3d5ffd5b505050506040513d601f19601f8201168201806040525081019061134991906119fb565b5060068701546040517fec604e4600000000000000000000000000000000000000000000000000000000815233600482015242919091036103e8026024820181905260016044830152907f000000000000000000000000000000000000000000000000000000000000000073ffffffffffffffffffffffffffffffffffffffff169063ec604e46906064015f604051808303815f87803b1580156113eb575f80fd5b505af11580156113fd573d5f803e3d5ffd5b5050506001890154604080519182524260208301528592508f917f62f53a2e9903c031b965e6767bc84ff87103f45e6fa57cd5192f1314185acf6b910160405180910390a3600388015480156114ce576040515f90339083908381818185875af1925050503d805f811461148c576040519150601f19603f3d011682016040523d82523d5f602084013e611491565b606091505b50509050806114cc576040517f90b8ec1800000000000000000000000000000000000000000000000000000000815260040160405180910390fd5b505b5050505050505050505b50505f600655505050565b60408051610100810182525f80825260208201819052918101829052606081018290526080810182905260a0810182905260c0810182905260e08101919091525f828152600360205260408120600681015490910361156e576040517f4b13b31e00000000000000000000000000000000000000000000000000000000815260040160405180910390fd5b60408051610100810182528254815260018301546020820152600283015473ffffffffffffffffffffffffffffffffffffffff90811692820192909252600383015460608201526004830154608082015260058084015492831660a08301529091839160c084019174010000000000000000000000000000000000000000900460ff1690811115611601576116016116a7565b6005811115611612576116126116a7565b8152602001600682015481525050915050919050565b5f60208284031215611638575f80fd5b5035919050565b5f8060408385031215611650575f80fd5b50508035926020909101359150565b803573ffffffffffffffffffffffffffffffffffffffff81168114611682575f80fd5b919050565b5f60208284031215611697575f80fd5b6116a08261165f565b9392505050565b7f4e487b71000000000000000000000000000000000000000000000000000000005f52602160045260245ffd5b60068110611709577f4e487b71000000000000000000000000000000000000000000000000000000005f52602160045260245ffd5b9052565b8881526020810188905273ffffffffffffffffffffffffffffffffffffffff87811660408301526060820187905260808201869052841660a0820152610100810161175b60c08301856116d4565b8260e08301529998505050505050505050565b5f806040838503121561177f575f80fd5b8235915061178f6020840161165f565b90509250929050565b5f805f606084860312156117aa575f80fd5b505081359360208301359350604090920135919050565b5f8083601f8401126117d1575f80fd5b50813567ffffffffffffffff8111156117e8575f80fd5b6020830191508360208285010111156117ff575f80fd5b9250929050565b5f805f805f6060868803121561181a575f80fd5b85359450602086013567ffffffffffffffff80821115611838575f80fd5b61184489838a016117c1565b9096509450604088013591508082111561185c575f80fd5b50611869888289016117c1565b969995985093965092949392505050565b5f610100820190508251825260208301516020830152604083015173ffffffffffffffffffffffffffffffffffffffff808216604085015260608501516060850152608085015160808501528060a08601511660a0850152505060c08301516118e660c08401826116d4565b5060e092830151919092015290565b5f60208284031215611905575f80fd5b815180151581146116a0575f80fd5b81835281816020850137505f602082840101525f60207fffffffffffffffffffffffffffffffffffffffffffffffffffffffffffffffe0601f840116840101905092915050565b606081525f61196e606083018789611914565b8560208401528281036040840152611987818587611914565b98975050505050505050565b5f82515f5b818110156119b25760208186018101518583015201611998565b505f920191825250919050565b7f4e487b71000000000000000000000000000000000000000000000000000000005f52603260045260245ffd5b818382375f9101908152919050565b5f60208284031215611a0b575f80fd5b505191905056fea26469706673582212203242f8aaae512763726ca295a0cf593ee8de455312469e7b919d7f9932bd4c5864736f6c63430008180033","linkReferences":{}},"methodIdentifiers":{"DEFAULT_VERIFY_PRECOMPILE()":"43bf3591","assignProver(bytes32,address)":"af2e8f8a","getCircuitVKHash(bytes32)":"47a5d251","getRequest(bytes32)":"fb1e61ca","getRequestPublicInputsHash(bytes32)":"c008fac3","minFee()":"24ec7590","nonces(address)":"7ecebe00","operator()":"570ca735","proofRegistry()":"af1bd827","proverRegistry()":"eda31504","registerCircuit(bytes32,bytes32)":"42a412dc","registeredCircuits(bytes32)":"f4abfea5","requestProof(bytes32,bytes32,uint256)":"e0d30163","requestPublicInputsHash(bytes32)":"494217ca","requests(bytes32)":"9d866985","setMinFee(uint256)":"31ac9920","setOperator(address)":"b3ab15fb","submitProof(bytes32,bytes,bytes)":"eb90e2cb","verifyPrecompile()":"2773bf1d"},"id":19}