{"abi":[{"type":"constructor","inputs":[{"name":"_merkleInsert","type":"address","internalType":"address"},{"name":"_merkleVerify","type":"address","internalType":"address"}],"stateMutability":"nonpayable"},{"type":"function","name":"coordinator","inputs":[],"outputs":[{"name":"","type":"address","internalType":"address"}],"stateMutability":"view"},{"type":"function","name":"currentRoot","inputs":[],"outputs":[{"name":"","type":"bytes32","internalType":"bytes32"}],"stateMutability":"view"},{"type":"function","name":"getMerkleRoot","inputs":[],"outputs":[{"name":"","type":"bytes32","internalType":"bytes32"}],"stateMutability":"view"},{"type":"function","name":"getProofMetadata","inputs":[{"name":"proofId","type":"bytes32","internalType":"bytes32"}],"outputs":[{"name":"circuitId","type":"bytes32","internalType":"bytes32"},{"name":"timestamp","type":"uint256","internalType":"uint256"},{"name":"leafIndex","type":"uint256","internalType":"uint256"}],"stateMutability":"view"},{"type":"function","name":"isVerified","inputs":[{"name":"proofId","type":"bytes32","internalType":"bytes32"},{"name":"merkleProof","type":"bytes32[]","internalType":"bytes32[]"}],"outputs":[{"name":"","type":"bool","internalType":"bool"}],"stateMutability":"view"},{"type":"function","name":"merkleInsertPrecompile","inputs":[],"outputs":[{"name":"","type":"address","internalType":"address"}],"stateMutability":"view"},{"type":"function","name":"merkleVerifyPrecompile","inputs":[],"outputs":[{"name":"","type":"address","internalType":"address"}],"stateMutability":"view"},{"type":"function","name":"owner","inputs":[],"outputs":[{"name":"","type":"address","internalType":"address"}],"stateMutability":"view"},{"type":"function","name":"proofMetadata","inputs":[{"name":"","type":"bytes32","internalType":"bytes32"}],"outputs":[{"name":"circuitId","type":"bytes32","internalType":"bytes32"},{"name":"publicInputsHash","type":"bytes32","internalType":"bytes32"},{"name":"timestamp","type":"uint256","internalType":"uint256"},{"name":"leafIndex","type":"uint256","internalType":"uint256"},{"name":"exists","type":"bool","internalType":"bool"}],"stateMutability":"view"},{"type":"function","name":"registerProof","inputs":[{"name":"proofId","type":"bytes32","internalType":"bytes32"},{"name":"circuitId","type":"bytes32","internalType":"bytes32"},{"name":"publicInputsHash","type":"bytes32","internalType":"bytes32"},{"name":"timestamp","type":"uint256","internalType":"uint256"}],"outputs":[{"name":"leafIndex","type":"uint256","internalType":"uint256"}],"stateMutability":"nonpayable"},{"type":"function","name":"setCoordinator","inputs":[{"name":"_coordinator","type":"address","internalType":"address"}],"outputs":[],"stateMutability":"nonpayable"},{"type":"function","name":"totalProofs","inputs":[],"outputs":[{"name":"","type":"uint256","internalType":"uint256"}],"stateMutability":"view"},{"type":"event","name":"ProofRegistered","inputs":[{"name":"proofId","type":"bytes32","indexed":true,"internalType":"bytes32"},{"name":"circuitId","type":"bytes32","indexed":true,"internalType":"bytes32"},{"name":"leafIndex","type":"uint256","indexed":false,"internalType":"uint256"},{"name":"newRoot","type":"bytes32","indexed":false,"internalType":"bytes32"}],"anonymous":false},{"type":"error","name":"AlreadyRegistered","inputs":[]},{"type":"error","name":"InsertionFailed","inputs":[]},{"type":"error","name":"InvalidMerkleProof","inputs":[]},{"type":"error","name":"ProofNotFound","inputs":[]},{"type":"error","name":"Unauthorized","inputs":[]}],"bytecode":{"object":"0x60c060405234801561000f575f80fd5b50604051610aee380380610aee83398101604081905261002e91610072565b6001600160a01b039182166080521660a052600180546001600160a01b031916331790556100a3565b80516001600160a01b038116811461006d575f80fd5b919050565b5f8060408385031215610083575f80fd5b61008c83610057565b915061009a60208401610057565b90509250929050565b60805160a051610a1c6100d25f395f818161021f01526107e801525f8181610246015261042e0152610a1c5ff3fe608060405234801561000f575f80fd5b50600436106100cf575f3560e01c80638da5cb5b1161007d57806397b741af1161005857806397b741af14610241578063bf7c6d5614610268578063fdab463d1461028b575f80fd5b80638da5cb5b146101e55780638ea981171461020557806395f951651461021a575f80fd5b80633df88812116100ad5780633df888121461016157806349590657146101745780635361820e1461017c575f80fd5b80630a009097146100d357806312abd12e1461011c5780632ded35681461014a575b5f80fd5b5f546100f29073ffffffffffffffffffffffffffffffffffffffff1681565b60405173ffffffffffffffffffffffffffffffffffffffff90911681526020015b60405180910390f35b61012f61012a36600461089c565b610294565b60408051938452602084019290925290820152606001610113565b61015360045481565b604051908152602001610113565b61015361016f3660046108b3565b6102fc565b600354610153565b6101bb61018a36600461089c565b600260208190525f918252604090912080546001820154928201546003830154600490930154919392909160ff1685565b6040805195865260208601949094529284019190915260608301521515608082015260a001610113565b6001546100f29073ffffffffffffffffffffffffffffffffffffffff1681565b6102186102133660046108e2565b61060c565b005b6100f27f000000000000000000000000000000000000000000000000000000000000000081565b6100f27f000000000000000000000000000000000000000000000000000000000000000081565b61027b610276366004610915565b6106a3565b6040519015158152602001610113565b61015360035481565b5f81815260026020526040812060048101548291829160ff166102e3576040517f36131e5700000000000000000000000000000000000000000000000000000000815260040160405180910390fd5b8054600282015460039092015490969195509350915050565b5f805473ffffffffffffffffffffffffffffffffffffffff16331461034d576040517f82b4290000000000000000000000000000000000000000000000000000000000815260040160405180910390fd5b5f8581526002602052604090206004015460ff1615610398576040517f3a81d6fc00000000000000000000000000000000000000000000000000000000815260040160405180910390fd5b6040805160208082018890528183018790526060820186905260808083018690528351808403909101815260a08301845280519082012060c0830188905260e083018790526101008084018790528451808503909101815261012084019094528351939091019290922061014082018390526101608201819052905f90819073ffffffffffffffffffffffffffffffffffffffff7f0000000000000000000000000000000000000000000000000000000000000000169061018001604080517fffffffffffffffffffffffffffffffffffffffffffffffffffffffffffffffe08184030181529082905261048b9161098d565b5f60405180830381855afa9150503d805f81146104c3576040519150601f19603f3d011682016040523d82523d5f602084013e6104c8565b606091505b50915091508115806104dc57506040815114155b15610513576040517fd131b8a500000000000000000000000000000000000000000000000000000000815260040160405180910390fd5b5f60208201519050604082015195508060038190555060045f8154600101919050819055506040518060a001604052808a81526020018981526020018881526020018781526020016001151581525060025f8c81526020019081526020015f205f820151815f01556020820151816001015560408201518160020155606082015181600301556080820151816004015f6101000a81548160ff021916908315150217905550905050888a7f2b59754f451b53a94dff7374cb3ee5b295cddc5daffbee649d4dc3a61378f4eb88846040516105f7929190918252602082015260400190565b60405180910390a35050505050949350505050565b60015473ffffffffffffffffffffffffffffffffffffffff16331461065d576040517f82b4290000000000000000000000000000000000000000000000000000000000815260040160405180910390fd5b5f80547fffffffffffffffffffffffff00000000000000000000000000000000000000001673ffffffffffffffffffffffffffffffffffffffff92909216919091179055565b5f838152600260205260408120600481015460ff166106c5575f915050610895565b8054600182015460028301546040805160208082018b90528183018690526060820185905260808083018590528351808403909101815260a08301845280519082012060c083019690965260e0820194909452610100808201939093528151808203909301835261012081018083528351939094019290922060038601546104808086526105c08501909352909390925f92906101400181803683375050506020810185905260408101849052606081018390529050865f5b60208110156107be575f828210156107ac578a8a838181106107a2576107a26109b9565b9050602002013590505b6020820284016080015260010161077e565b5060035461048083018190526040515f90819073ffffffffffffffffffffffffffffffffffffffff7f0000000000000000000000000000000000000000000000000000000000000000169061081490879061098d565b5f60405180830381855afa9150503d805f811461084c576040519150601f19603f3d011682016040523d82523d5f602084013e610851565b606091505b509150915081801561086357505f8151115b80156108895750805f8151811061087c5761087c6109b9565b60209101015160f81c6001145b99505050505050505050505b9392505050565b5f602082840312156108ac575f80fd5b5035919050565b5f805f80608085870312156108c6575f80fd5b5050823594602084013594506040840135936060013592509050565b5f602082840312156108f2575f80fd5b813573ffffffffffffffffffffffffffffffffffffffff81168114610895575f80fd5b5f805f60408486031215610927575f80fd5b83359250602084013567ffffffffffffffff80821115610945575f80fd5b818601915086601f830112610958575f80fd5b813581811115610966575f80fd5b8760208260051b850101111561097a575f80fd5b6020830194508093505050509250925092565b5f82515f5b818110156109ac5760208186018101518583015201610992565b505f920191825250919050565b7f4e487b71000000000000000000000000000000000000000000000000000000005f52603260045260245ffdfea2646970667358221220cc359649ad3fb53f903fe373b6a9b1519925d2e8dbc3592413e729d7cc63393464736f6c63430008180033","linkReferences":{}},"methodIdentifiers":{"coordinator()":"0a009097","currentRoot()":"fdab463d","getMerkleRoot()":"49590657","getProofMetadata(bytes32)":"12abd12e","isVerified(bytes32,bytes32[])":"bf7c6d56","merkleInsertPrecompile()":"97b741af","merkleVerifyPrecompile()":"95f95165","owner()":"8da5cb5b","proofMetadata(bytes32)":"5361820e","registerProof(bytes32,bytes32,bytes32,uint256)":"3df88812","setCoordinator(address)":"8ea98117","totalProofs()":"2ded3568"},"id":20}